{
  "_format": "hh-sol-artifact-1",
  "contractName": "VCFileVault",
  "sourceName": "contracts/VCFileVault.sol",
  "abi": [
    {
      "anonymous": false,
      "inputs": [
        {
          "indexed": true,
          "internalType": "string",
          "name": "fileId",
          "type": "string"
        },
        {
          "indexed": true,
          "internalType": "address",
          "name": "owner",
          "type": "address"
        },
        {
          "indexed": true,
          "internalType": "address",
          "name": "user",
          "type": "address"
        }
      ],
      "name": "AccessGranted",
      "type": "event"
    },
    {
      "anonymous": false,
      "inputs": [
        {
          "indexed": true,
          "internalType": "string",
          "name": "fileId",
          "type": "string"
        },
        {
          "indexed": true,
          "internalType": "address",
          "name": "owner",
          "type": "address"
        },
        {
          "indexed": true,
          "internalType": "address",
          "name": "user",
          "type": "address"
        }
      ],
      "name": "AccessRevoked",
      "type": "event"
    },
    {
      "anonymous": false,
      "inputs": [
        {
          "indexed": true,
          "internalType": "string",
          "name": "fileId",
          "type": "string"
        },
        {
          "indexed": true,
          "internalType": "address",
          "name": "owner",
          "type": "address"
        },
        {
          "indexed": false,
          "internalType": "uint256",
          "name": "uploadTime",
          "type": "uint256"
        }
      ],
      "name": "FileUploaded",
      "type": "event"
    },
    {
      "inputs": [
        {
          "internalType": "string",
          "name": "_fileId",
          "type": "string"
        }
      ],
      "name": "getFileMetadata",
      "outputs": [
        {
          "internalType": "string",
          "name": "fileName",
          "type": "string"
        },
        {
          "internalType": "uint256",
          "name": "size",
          "type": "uint256"
        },
        {
          "internalType": "string",
          "name": "originalFileHash",
          "type": "string"
        },
        {
          "internalType": "address",
          "name": "owner",
          "type": "address"
        },
        {
          "internalType": "uint256",
          "name": "uploadTime",
          "type": "uint256"
        },
        {
          "internalType": "bool",
          "name": "isActive",
          "type": "bool"
        }
      ],
      "stateMutability": "view",
      "type": "function"
    },
    {
      "inputs": [
        {
          "internalType": "string",
          "name": "_fileId",
          "type": "string"
        }
      ],
      "name": "getFileShares",
      "outputs": [
        {
          "internalType": "string[]",
          "name": "",
          "type": "string[]"
        }
      ],
      "stateMutability": "view",
      "type": "function"
    },
    {
      "inputs": [
        {
          "internalType": "string",
          "name": "_fileId",
          "type": "string"
        },
        {
          "internalType": "address",
          "name": "_user",
          "type": "address"
        }
      ],
      "name": "grantAccess",
      "outputs": [],
      "stateMutability": "nonpayable",
      "type": "function"
    },
    {
      "inputs": [
        {
          "internalType": "string",
          "name": "_fileId",
          "type": "string"
        },
        {
          "internalType": "address",
          "name": "_user",
          "type": "address"
        }
      ],
      "name": "hasAccess",
      "outputs": [
        {
          "internalType": "bool",
          "name": "",
          "type": "bool"
        }
      ],
      "stateMutability": "view",
      "type": "function"
    },
    {
      "inputs": [
        {
          "internalType": "string",
          "name": "_fileId",
          "type": "string"
        },
        {
          "internalType": "address",
          "name": "_user",
          "type": "address"
        }
      ],
      "name": "revokeAccess",
      "outputs": [],
      "stateMutability": "nonpayable",
      "type": "function"
    },
    {
      "inputs": [
        {
          "internalType": "string",
          "name": "_fileId",
          "type": "string"
        },
        {
          "internalType": "string",
          "name": "_fileName",
          "type": "string"
        },
        {
          "internalType": "uint256",
          "name": "_size",
          "type": "uint256"
        },
        {
          "internalType": "string",
          "name": "_originalFileHash",
          "type": "string"
        },
        {
          "internalType": "string[]",
          "name": "_shareHashes",
          "type": "string[]"
        }
      ],
      "name": "uploadFile",
      "outputs": [],
      "stateMutability": "nonpayable",
      "type": "function"
    }
  ],
  "bytecode": "0x608060405234801561001057600080fd5b50612276806100206000396000f3fe608060405234801561001057600080fd5b50600436106100625760003560e01c806313bd20e2146100675780631f98500314610097578063a570dc07146100cc578063ca346c47146100e8578063dfe0b5fe14610118578063f37c215e14610134575b600080fd5b610081600480360381019061007c919061144a565b610150565b60405161008e91906114c1565b60405180910390f35b6100b160048036038101906100ac91906114dc565b610228565b6040516100c3969594939291906115cc565b60405180910390f35b6100e660048036038101906100e1919061174d565b6106b5565b005b61010260048036038101906100fd91906114dc565b610988565b60405161010f9190611944565b60405180910390f35b610132600480360381019061012d919061144a565b610b8f565b005b61014e6004803603810190610149919061144a565b610ea3565b005b6000826000808260405161016491906119a2565b908152602001604051809103902060060154036101b6576040517f08c379a00000000000000000000000000000000000000000000000000000000081526004016101ad90611a05565b60405180910390fd5b6001846040516101c691906119a2565b908152602001604051809103902060008473ffffffffffffffffffffffffffffffffffffffff1673ffffffffffffffffffffffffffffffffffffffff16815260200190815260200160002060009054906101000a900460ff1691505092915050565b6060600060606000806000866000808260405161024591906119a2565b90815260200160405180910390206006015403610297576040517f08c379a000000000000000000000000000000000000000000000000000000000815260040161028e90611a05565b60405180910390fd5b6001886040516102a791906119a2565b908152602001604051809103902060003373ffffffffffffffffffffffffffffffffffffffff1673ffffffffffffffffffffffffffffffffffffffff16815260200190815260200160002060009054906101000a900460ff1661033f576040517f08c379a000000000000000000000000000000000000000000000000000000000815260040161033690611a97565b60405180910390fd5b6000808960405161035091906119a2565b90815260200160405180910390206040518061010001604052908160008201805461037a90611ae6565b80601f01602080910402602001604051908101604052809291908181526020018280546103a690611ae6565b80156103f35780601f106103c8576101008083540402835291602001916103f3565b820191906000526020600020905b8154815290600101906020018083116103d657829003601f168201915b5050505050815260200160018201805461040c90611ae6565b80601f016020809104026020016040519081016040528092919081815260200182805461043890611ae6565b80156104855780601f1061045a57610100808354040283529160200191610485565b820191906000526020600020905b81548152906001019060200180831161046857829003601f168201915b50505050508152602001600282015481526020016003820180546104a890611ae6565b80601f01602080910402602001604051908101604052809291908181526020018280546104d490611ae6565b80156105215780601f106104f657610100808354040283529160200191610521565b820191906000526020600020905b81548152906001019060200180831161050457829003601f168201915b5050505050815260200160048201805480602002602001604051908101604052809291908181526020016000905b828210156105fb57838290600052602060002001805461056e90611ae6565b80601f016020809104026020016040519081016040528092919081815260200182805461059a90611ae6565b80156105e75780601f106105bc576101008083540402835291602001916105e7565b820191906000526020600020905b8154815290600101906020018083116105ca57829003601f168201915b50505050508152602001906001019061054f565b5050505081526020016005820160009054906101000a900473ffffffffffffffffffffffffffffffffffffffff1673ffffffffffffffffffffffffffffffffffffffff1673ffffffffffffffffffffffffffffffffffffffff168152602001600682015481526020016007820160009054906101000a900460ff16151515158152505090508060200151816040015182606001518360a001518460c001518560e00151975097509750975097509750505091939550919395565b600080866040516106c691906119a2565b90815260200160405180910390206006015414610718576040517f08c379a000000000000000000000000000000000000000000000000000000000815260040161070f90611b89565b60405180910390fd5b600181511161075c576040517f08c379a000000000000000000000000000000000000000000000000000000000815260040161075390611c1b565b60405180910390fd5b6040518061010001604052808681526020018581526020018481526020018381526020018281526020013373ffffffffffffffffffffffffffffffffffffffff168152602001428152602001600115158152506000866040516107bf91906119a2565b908152602001604051809103902060008201518160000190816107e29190611de7565b5060208201518160010190816107f89190611de7565b506040820151816002015560608201518160030190816108189190611de7565b5060808201518160040190805190602001906108359291906111b8565b5060a08201518160050160006101000a81548173ffffffffffffffffffffffffffffffffffffffff021916908373ffffffffffffffffffffffffffffffffffffffff16021790555060c0820151816006015560e08201518160070160006101000a81548160ff021916908315150217905550905050600180866040516108bb91906119a2565b908152602001604051809103902060003373ffffffffffffffffffffffffffffffffffffffff1673ffffffffffffffffffffffffffffffffffffffff16815260200190815260200160002060006101000a81548160ff0219169083151502179055503373ffffffffffffffffffffffffffffffffffffffff168560405161094291906119a2565b60405180910390207f0b676c33880daff1a31fa6365b07f18cfc698e569ddd7b25365d68cfb7e6e7eb426040516109799190611eb9565b60405180910390a35050505050565b6060816000808260405161099c91906119a2565b908152602001604051809103902060060154036109ee576040517f08c379a00000000000000000000000000000000000000000000000000000000081526004016109e590611a05565b60405180910390fd5b6001836040516109fe91906119a2565b908152602001604051809103902060003373ffffffffffffffffffffffffffffffffffffffff1673ffffffffffffffffffffffffffffffffffffffff16815260200190815260200160002060009054906101000a900460ff16610a96576040517f08c379a0000000000000000000000000000000000000000000000000000000008152600401610a8d90611f46565b60405180910390fd5b600083604051610aa691906119a2565b9081526020016040518091039020600401805480602002602001604051908101604052809291908181526020016000905b82821015610b83578382906000526020600020018054610af690611ae6565b80601f0160208091040260200160405190810160405280929190818152602001828054610b2290611ae6565b8015610b6f5780601f10610b4457610100808354040283529160200191610b6f565b820191906000526020600020905b815481529060010190602001808311610b5257829003601f168201915b505050505081526020019060010190610ad7565b50505050915050919050565b8160008082604051610ba191906119a2565b90815260200160405180910390206006015403610bf3576040517f08c379a0000000000000000000000000000000000000000000000000000000008152600401610bea90611a05565b60405180910390fd5b823373ffffffffffffffffffffffffffffffffffffffff16600082604051610c1b91906119a2565b908152602001604051809103902060050160009054906101000a900473ffffffffffffffffffffffffffffffffffffffff1673ffffffffffffffffffffffffffffffffffffffff1614610ca3576040517f08c379a0000000000000000000000000000000000000000000000000000000008152600401610c9a90611fd8565b60405180910390fd5b3373ffffffffffffffffffffffffffffffffffffffff168373ffffffffffffffffffffffffffffffffffffffff1603610d11576040517f08c379a0000000000000000000000000000000000000000000000000000000008152600401610d089061206a565b60405180910390fd5b600184604051610d2191906119a2565b908152602001604051809103902060008473ffffffffffffffffffffffffffffffffffffffff1673ffffffffffffffffffffffffffffffffffffffff16815260200190815260200160002060009054906101000a900460ff16610db9576040517f08c379a0000000000000000000000000000000000000000000000000000000008152600401610db0906120fc565b60405180910390fd5b6000600185604051610dcb91906119a2565b908152602001604051809103902060008573ffffffffffffffffffffffffffffffffffffffff1673ffffffffffffffffffffffffffffffffffffffff16815260200190815260200160002060006101000a81548160ff0219169083151502179055508273ffffffffffffffffffffffffffffffffffffffff163373ffffffffffffffffffffffffffffffffffffffff1685604051610e6991906119a2565b60405180910390207fd31b40d0e5dc0e720f13cdff5452df15cb4226cbbc509a4a141cb4c3e09bf14b60405160405180910390a450505050565b8160008082604051610eb591906119a2565b90815260200160405180910390206006015403610f07576040517f08c379a0000000000000000000000000000000000000000000000000000000008152600401610efe90611a05565b60405180910390fd5b823373ffffffffffffffffffffffffffffffffffffffff16600082604051610f2f91906119a2565b908152602001604051809103902060050160009054906101000a900473ffffffffffffffffffffffffffffffffffffffff1673ffffffffffffffffffffffffffffffffffffffff1614610fb7576040517f08c379a0000000000000000000000000000000000000000000000000000000008152600401610fae90611fd8565b60405180910390fd5b600073ffffffffffffffffffffffffffffffffffffffff168373ffffffffffffffffffffffffffffffffffffffff1603611026576040517f08c379a000000000000000000000000000000000000000000000000000000000815260040161101d9061218e565b60405180910390fd5b60018460405161103691906119a2565b908152602001604051809103902060008473ffffffffffffffffffffffffffffffffffffffff1673ffffffffffffffffffffffffffffffffffffffff16815260200190815260200160002060009054906101000a900460ff16156110cf576040517f08c379a00000000000000000000000000000000000000000000000000000000081526004016110c690612220565b60405180910390fd5b600180856040516110e091906119a2565b908152602001604051809103902060008573ffffffffffffffffffffffffffffffffffffffff1673ffffffffffffffffffffffffffffffffffffffff16815260200190815260200160002060006101000a81548160ff0219169083151502179055508273ffffffffffffffffffffffffffffffffffffffff163373ffffffffffffffffffffffffffffffffffffffff168560405161117e91906119a2565b60405180910390207ffbc6d0108d2bcc402dccd9e59a550c2ec2c25fde70262696fe3d257d59c9cf1860405160405180910390a450505050565b828054828255906000526020600020908101928215611200579160200282015b828111156111ff5782518290816111ef9190611de7565b50916020019190600101906111d8565b5b50905061120d9190611211565b5090565b5b8082111561123157600081816112289190611235565b50600101611212565b5090565b50805461124190611ae6565b6000825580601f106112535750611272565b601f0160209004906000526020600020908101906112719190611275565b5b50565b5b8082111561128e576000816000905550600101611276565b5090565b6000604051905090565b600080fd5b600080fd5b600080fd5b600080fd5b6000601f19601f8301169050919050565b7f4e487b7100000000000000000000000000000000000000000000000000000000600052604160045260246000fd5b6112f9826112b0565b810181811067ffffffffffffffff82111715611318576113176112c1565b5b80604052505050565b600061132b611292565b905061133782826112f0565b919050565b600067ffffffffffffffff821115611357576113566112c1565b5b611360826112b0565b9050602081019050919050565b82818337600083830152505050565b600061138f61138a8461133c565b611321565b9050828152602081018484840111156113ab576113aa6112ab565b5b6113b684828561136d565b509392505050565b600082601f8301126113d3576113d26112a6565b5b81356113e384826020860161137c565b91505092915050565b600073ffffffffffffffffffffffffffffffffffffffff82169050919050565b6000611417826113ec565b9050919050565b6114278161140c565b811461143257600080fd5b50565b6000813590506114448161141e565b92915050565b600080604083850312156114615761146061129c565b5b600083013567ffffffffffffffff81111561147f5761147e6112a1565b5b61148b858286016113be565b925050602061149c85828601611435565b9150509250929050565b60008115159050919050565b6114bb816114a6565b82525050565b60006020820190506114d660008301846114b2565b92915050565b6000602082840312156114f2576114f161129c565b5b600082013567ffffffffffffffff8111156115105761150f6112a1565b5b61151c848285016113be565b91505092915050565b600081519050919050565b600082825260208201905092915050565b60005b8381101561155f578082015181840152602081019050611544565b60008484015250505050565b600061157682611525565b6115808185611530565b9350611590818560208601611541565b611599816112b0565b840191505092915050565b6000819050919050565b6115b7816115a4565b82525050565b6115c68161140c565b82525050565b600060c08201905081810360008301526115e6818961156b565b90506115f560208301886115ae565b8181036040830152611607818761156b565b905061161660608301866115bd565b61162360808301856115ae565b61163060a08301846114b2565b979650505050505050565b611644816115a4565b811461164f57600080fd5b50565b6000813590506116618161163b565b92915050565b600067ffffffffffffffff821115611682576116816112c1565b5b602082029050602081019050919050565b600080fd5b60006116ab6116a684611667565b611321565b905080838252602082019050602084028301858111156116ce576116cd611693565b5b835b8181101561171557803567ffffffffffffffff8111156116f3576116f26112a6565b5b80860161170089826113be565b855260208501945050506020810190506116d0565b5050509392505050565b600082601f830112611734576117336112a6565b5b8135611744848260208601611698565b91505092915050565b600080600080600060a086880312156117695761176861129c565b5b600086013567ffffffffffffffff811115611787576117866112a1565b5b611793888289016113be565b955050602086013567ffffffffffffffff8111156117b4576117b36112a1565b5b6117c0888289016113be565b94505060406117d188828901611652565b935050606086013567ffffffffffffffff8111156117f2576117f16112a1565b5b6117fe888289016113be565b925050608086013567ffffffffffffffff81111561181f5761181e6112a1565b5b61182b8882890161171f565b9150509295509295909350565b600081519050919050565b600082825260208201905092915050565b6000819050602082019050919050565b600082825260208201905092915050565b600061188082611525565b61188a8185611864565b935061189a818560208601611541565b6118a3816112b0565b840191505092915050565b60006118ba8383611875565b905092915050565b6000602082019050919050565b60006118da82611838565b6118e48185611843565b9350836020820285016118f685611854565b8060005b85811015611932578484038952815161191385826118ae565b945061191e836118c2565b925060208a019950506001810190506118fa565b50829750879550505050505092915050565b6000602082019050818103600083015261195e81846118cf565b905092915050565b600081905092915050565b600061197c82611525565b6119868185611966565b9350611996818560208601611541565b80840191505092915050565b60006119ae8284611971565b915081905092915050565b7f564346696c655661756c743a2046696c6520646f6573206e6f74206578697374600082015250565b60006119ef602083611530565b91506119fa826119b9565b602082019050919050565b60006020820190508181036000830152611a1e816119e2565b9050919050565b7f564346696c655661756c743a20536d6172742041636365737320436f6e74726f60008201527f6c2064656e6965642061636365737320746f206d657461646174610000000000602082015250565b6000611a81603b83611530565b9150611a8c82611a25565b604082019050919050565b60006020820190508181036000830152611ab081611a74565b9050919050565b7f4e487b7100000000000000000000000000000000000000000000000000000000600052602260045260246000fd5b60006002820490506001821680611afe57607f821691505b602082108103611b1157611b10611ab7565b5b50919050565b7f564346696c655661756c743a2046696c6520494420616c72656164792065786960008201527f7374730000000000000000000000000000000000000000000000000000000000602082015250565b6000611b73602383611530565b9150611b7e82611b17565b604082019050919050565b60006020820190508181036000830152611ba281611b66565b9050919050565b7f564346696c655661756c743a20412076616c69642056432073706c6974206d7560008201527f73742068617665203e3120736861726573000000000000000000000000000000602082015250565b6000611c05603183611530565b9150611c1082611ba9565b604082019050919050565b60006020820190508181036000830152611c3481611bf8565b9050919050565b60008190508160005260206000209050919050565b60006020601f8301049050919050565b600082821b905092915050565b600060088302611c9d7fffffffffffffffffffffffffffffffffffffffffffffffffffffffffffffffff82611c60565b611ca78683611c60565b95508019841693508086168417925050509392505050565b6000819050919050565b6000611ce4611cdf611cda846115a4565b611cbf565b6115a4565b9050919050565b6000819050919050565b611cfe83611cc9565b611d12611d0a82611ceb565b848454611c6d565b825550505050565b600090565b611d27611d1a565b611d32818484611cf5565b505050565b5b81811015611d5657611d4b600082611d1f565b600181019050611d38565b5050565b601f821115611d9b57611d6c81611c3b565b611d7584611c50565b81016020851015611d84578190505b611d98611d9085611c50565b830182611d37565b50505b505050565b600082821c905092915050565b6000611dbe60001984600802611da0565b1980831691505092915050565b6000611dd78383611dad565b9150826002028217905092915050565b611df082611525565b67ffffffffffffffff811115611e0957611e086112c1565b5b611e138254611ae6565b611e1e828285611d5a565b600060209050601f831160018114611e515760008415611e3f578287015190505b611e498582611dcb565b865550611eb1565b601f198416611e5f86611c3b565b60005b82811015611e8757848901518255600182019150602085019450602081019050611e62565b86831015611ea45784890151611ea0601f891682611dad565b8355505b6001600288020188555050505b505050505050565b6000602082019050611ece60008301846115ae565b92915050565b7f564346696c655661756c743a20536d6172742041636365737320436f6e74726f60008201527f6c2064656e696564206163636573730000000000000000000000000000000000602082015250565b6000611f30602f83611530565b9150611f3b82611ed4565b604082019050919050565b60006020820190508181036000830152611f5f81611f23565b9050919050565b7f564346696c655661756c743a2043616c6c6572206973206e6f7420746865206f60008201527f776e657200000000000000000000000000000000000000000000000000000000602082015250565b6000611fc2602483611530565b9150611fcd82611f66565b604082019050919050565b60006020820190508181036000830152611ff181611fb5565b9050919050565b7f564346696c655661756c743a2043616e6e6f74207265766f6b65206f776e657260008201527f2061636365737300000000000000000000000000000000000000000000000000602082015250565b6000612054602783611530565b915061205f82611ff8565b604082019050919050565b6000602082019050818103600083015261208381612047565b9050919050565b7f564346696c655661756c743a205573657220646f6573206e6f7420686176652060008201527f6163636573730000000000000000000000000000000000000000000000000000602082015250565b60006120e6602683611530565b91506120f18261208a565b604082019050919050565b60006020820190508181036000830152612115816120d9565b9050919050565b7f564346696c655661756c743a20496e76616c696420757365722061646472657360008201527f7300000000000000000000000000000000000000000000000000000000000000602082015250565b6000612178602183611530565b91506121838261211c565b604082019050919050565b600060208201905081810360008301526121a78161216b565b9050919050565b7f564346696c655661756c743a205573657220616c72656164792068617320616360008201527f6365737300000000000000000000000000000000000000000000000000000000602082015250565b600061220a602483611530565b9150612215826121ae565b604082019050919050565b60006020820190508181036000830152612239816121fd565b905091905056fea2646970667358221220fbbc662896c3177b564e9ac2563feb0b97a890eb307fde68860a0bb64585640e64736f6c63430008140033",
  "linkReferences": {},
  "deployedLinkReferences": {}
}